{
  "contractName": "Fighting",
  "abi": [
    {
      "constant": true,
      "inputs": [],
      "name": "fighter1played",
      "outputs": [
        {
          "name": "",
          "type": "bool"
        }
      ],
      "payable": false,
      "stateMutability": "view",
      "type": "function"
    },
    {
      "constant": true,
      "inputs": [],
      "name": "fighter1",
      "outputs": [
        {
          "name": "",
          "type": "address"
        }
      ],
      "payable": false,
      "stateMutability": "view",
      "type": "function"
    },
    {
      "constant": true,
      "inputs": [],
      "name": "fighter2played",
      "outputs": [
        {
          "name": "",
          "type": "bool"
        }
      ],
      "payable": false,
      "stateMutability": "view",
      "type": "function"
    },
    {
      "constant": true,
      "inputs": [],
      "name": "winner",
      "outputs": [
        {
          "name": "",
          "type": "address"
        }
      ],
      "payable": false,
      "stateMutability": "view",
      "type": "function"
    },
    {
      "constant": true,
      "inputs": [],
      "name": "fighter2",
      "outputs": [
        {
          "name": "",
          "type": "address"
        }
      ],
      "payable": false,
      "stateMutability": "view",
      "type": "function"
    },
    {
      "constant": true,
      "inputs": [],
      "name": "gameFinished",
      "outputs": [
        {
          "name": "",
          "type": "bool"
        }
      ],
      "payable": false,
      "stateMutability": "view",
      "type": "function"
    },
    {
      "inputs": [],
      "payable": false,
      "stateMutability": "nonpayable",
      "type": "constructor"
    },
    {
      "anonymous": false,
      "inputs": [
        {
          "indexed": false,
          "name": "fighter1",
          "type": "address"
        },
        {
          "indexed": false,
          "name": "fighter2",
          "type": "address"
        }
      ],
      "name": "FightingStart",
      "type": "event"
    },
    {
      "anonymous": false,
      "inputs": [
        {
          "indexed": false,
          "name": "fighter1deposit",
          "type": "uint256"
        },
        {
          "indexed": false,
          "name": "fighter2deposit",
          "type": "uint256"
        }
      ],
      "name": "RoundEnd",
      "type": "event"
    },
    {
      "anonymous": false,
      "inputs": [
        {
          "indexed": false,
          "name": "winner",
          "type": "address"
        },
        {
          "indexed": false,
          "name": "gain",
          "type": "uint256"
        }
      ],
      "name": "FightingEnd",
      "type": "event"
    },
    {
      "constant": false,
      "inputs": [],
      "name": "registerOpponent",
      "outputs": [],
      "payable": false,
      "stateMutability": "nonpayable",
      "type": "function"
    },
    {
      "constant": false,
      "inputs": [],
      "name": "fight",
      "outputs": [],
      "payable": true,
      "stateMutability": "payable",
      "type": "function"
    },
    {
      "constant": false,
      "inputs": [],
      "name": "withdraw",
      "outputs": [],
      "payable": false,
      "stateMutability": "nonpayable",
      "type": "function"
    }
  ],
  "bytecode": "0x6060604052341561000f57600080fd5b336000806101000a81548173ffffffffffffffffffffffffffffffffffffffff021916908373ffffffffffffffffffffffffffffffffffffffff16021790555061092f8061005e6000396000f300606060405260043610610099576000357c0100000000000000000000000000000000000000000000000000000000900463ffffffff168063355a98421461009e5780633ccfd60b146100cb578063457df8de146100e057806363e9b73c146100ea578063a81bfec6146100ff578063ba60bc1014610154578063dfbf53ae14610181578063e5092c70146101d6578063f0f324971461022b575b600080fd5b34156100a957600080fd5b6100b1610258565b604051808215151515815260200191505060405180910390f35b34156100d657600080fd5b6100de61026b565b005b6100e8610331565b005b34156100f557600080fd5b6100fd61059e565b005b341561010a57600080fd5b610112610718565b604051808273ffffffffffffffffffffffffffffffffffffffff1673ffffffffffffffffffffffffffffffffffffffff16815260200191505060405180910390f35b341561015f57600080fd5b61016761073d565b604051808215151515815260200191505060405180910390f35b341561018c57600080fd5b610194610750565b604051808273ffffffffffffffffffffffffffffffffffffffff1673ffffffffffffffffffffffffffffffffffffffff16815260200191505060405180910390f35b34156101e157600080fd5b6101e9610776565b604051808273ffffffffffffffffffffffffffffffffffffffff1673ffffffffffffffffffffffffffffffffffffffff16815260200191505060405180910390f35b341561023657600080fd5b61023e61079c565b604051808215151515815260200191505060405180910390f35b600160149054906101000a900460ff1681565b6000600460009054906101000a900460ff1680156102d657503373ffffffffffffffffffffffffffffffffffffffff16600460019054906101000a900473ffffffffffffffffffffffffffffffffffffffff1673ffffffffffffffffffffffffffffffffffffffff16145b15156102e157600080fd5b600554905060006005819055503373ffffffffffffffffffffffffffffffffffffffff166108fc829081150290604051600060405180830381858888f19350505050151561032e57600080fd5b50565b600460009054906101000a900460ff161580156103f257506000809054906101000a900473ffffffffffffffffffffffffffffffffffffffff1673ffffffffffffffffffffffffffffffffffffffff163373ffffffffffffffffffffffffffffffffffffffff1614806103f15750600160009054906101000a900473ffffffffffffffffffffffffffffffffffffffff1673ffffffffffffffffffffffffffffffffffffffff163373ffffffffffffffffffffffffffffffffffffffff16145b5b15156103fd57600080fd5b6000809054906101000a900473ffffffffffffffffffffffffffffffffffffffff1673ffffffffffffffffffffffffffffffffffffffff163373ffffffffffffffffffffffffffffffffffffffff16141561049e5760001515600160149054906101000a900460ff16151514151561047457600080fd5b60018060146101000a81548160ff02191690831515021790555034600254016002819055506104e6565b60001515600160159054906101000a900460ff1615151415156104c057600080fd5b60018060156101000a81548160ff02191690831515021790555034600354016003819055505b600160149054906101000a900460ff16801561050e5750600160159054906101000a900460ff165b1561059c576002600354026002541015156105525761054d6000809054906101000a900473ffffffffffffffffffffffffffffffffffffffff166107af565b61059b565b60028054026003541015156105915761058c600160009054906101000a900473ffffffffffffffffffffffffffffffffffffffff166107af565b61059a565b610599610888565b5b5b5b565b600073ffffffffffffffffffffffffffffffffffffffff16600160009054906101000a900473ffffffffffffffffffffffffffffffffffffffff1673ffffffffffffffffffffffffffffffffffffffff161415156105fb57600080fd5b33600160006101000a81548173ffffffffffffffffffffffffffffffffffffffff021916908373ffffffffffffffffffffffffffffffffffffffff1602179055507f02078eb0cd03208af8651f5e23348fe65934a9c789b1c3c89f4115cdaed1a0cc6000809054906101000a900473ffffffffffffffffffffffffffffffffffffffff16600160009054906101000a900473ffffffffffffffffffffffffffffffffffffffff16604051808373ffffffffffffffffffffffffffffffffffffffff1673ffffffffffffffffffffffffffffffffffffffff1681526020018273ffffffffffffffffffffffffffffffffffffffff1673ffffffffffffffffffffffffffffffffffffffff1681526020019250505060405180910390a1565b6000809054906101000a900473ffffffffffffffffffffffffffffffffffffffff1681565b600160159054906101000a900460ff1681565b600460019054906101000a900473ffffffffffffffffffffffffffffffffffffffff1681565b600160009054906101000a900473ffffffffffffffffffffffffffffffffffffffff1681565b600460009054906101000a900460ff1681565b6001600460006101000a81548160ff02191690831515021790555080600460016101000a81548173ffffffffffffffffffffffffffffffffffffffff021916908373ffffffffffffffffffffffffffffffffffffffff160217905550600354600254016005819055507fd93877a94dbff049bb1ea36e797d08d20bb730522c0608502c0323a800610c5d81600554604051808373ffffffffffffffffffffffffffffffffffffffff1673ffffffffffffffffffffffffffffffffffffffff1681526020018281526020019250505060405180910390a150565b6000600160146101000a81548160ff0219169083151502179055506000600160156101000a81548160ff0219169083151502179055507f9a9cfeded2c9b80a81abfac2f5e361da5dc2efe83cd9cad42aa53ef224a725bb600254600354604051808381526020018281526020019250505060405180910390a15600a165627a7a72305820bdbb633e4330ddfa56f23ebaa968d5494c2275eec0c875da40071e1c7ef0d1570029",
  "source": "pragma solidity ^0.4.0;\r\n\r\ncontract Fighting {\r\n    \r\n    address public fighter1;\r\n    address public fighter2;\r\n    \r\n    bool public fighter1played;\r\n    bool public fighter2played;\r\n\r\n    uint private fighter1deposit;\r\n    uint private fighter2deposit;\r\n\r\n    bool public gameFinished;\r\n    address public winner;\r\n    uint gain;\r\n\r\n    event FightingStart(address fighter1, address fighter2);\r\n    event RoundEnd(uint fighter1deposit, uint fighter2deposit);\r\n    event FightingEnd(address winner, uint gain);\r\n\r\n    function Fighting() public {\r\n        // fighter1 is who called the function\r\n        fighter1 = msg.sender;\r\n    }\r\n\r\n    function registerOpponent() public {\r\n        // this statement is dope\r\n        require(fighter2 == address(0));\r\n\r\n        fighter2 = msg.sender;\r\n        \r\n        // signals the start of wrestling\r\n        FightingStart(fighter1, fighter2);\r\n    }\r\n\r\n    function fight() public payable {\r\n        require(!gameFinished && (msg.sender == fighter1 || msg.sender == fighter2));\r\n\r\n        if (msg.sender == fighter1) {\r\n            require(fighter1played == false);\r\n            fighter1played = true;\r\n            fighter1deposit = fighter1deposit + msg.value;  // amount of ether sent\r\n        } else {\r\n            require(fighter2played == false);\r\n            fighter2played = true;\r\n            fighter2deposit = fighter2deposit + msg.value;\r\n        }\r\n\r\n        if (fighter1played && fighter2played) {\r\n            if (fighter1deposit >= fighter2deposit * 2) {\r\n                endOfGame(fighter1);\r\n            } else if (fighter2deposit >= fighter1deposit * 2) {\r\n                endOfGame(fighter2);\r\n            } else {\r\n                endOfRound();\r\n            }\r\n        }\r\n    }\r\n\r\n    function endOfGame(address fighter) internal {\r\n        gameFinished = true;\r\n        winner = fighter;\r\n\r\n        gain = fighter1deposit + fighter2deposit;\r\n        FightingEnd(fighter, gain);\r\n    }\r\n\r\n    function endOfRound() internal {\r\n        fighter1played = false;\r\n        fighter2played = false;\r\n\r\n        RoundEnd(fighter1deposit, fighter2deposit);\r\n    }\r\n\r\n    function withdraw() public {\r\n        require(gameFinished && winner == msg.sender);\r\n\r\n        uint amount = gain;\r\n        gain = 0;\r\n        \r\n        // transfer the amount to caller \r\n        msg.sender.transfer(amount);\r\n    }   \r\n}",
  "sourcePath": "D:\\COLLEGE\\second-year\\sem-4\\blockchain\\contracts\\survey-app\\suit\\contracts\\fighting.sol",
  "compiler": {
    "name": "solc",
    "version": "0.4.19+commit.c4cbbb05.Emscripten.clang"
  },
  "schemaVersion": "2.0.0",
  "updatedAt": "2018-03-09T14:16:34.343Z"
}